:1000000012C09FC12BC02AC029C028C027C026C04B
:1000100025C024C023C022C021C020C01FC01EC0D4
:100020001DC01CC01BC011241FBECFE5D4E0DEBF25
:10003000CDBF10E0A0E6B0E0E0E3FCE002C0059038
:100040000D92A23BB107D9F720E0A2EBB0E001C0CE
:100050001D92A03CB207E1F745D2E8C593C180FFED
:100060000BC0AD9A81FF0AC0A99A82FF09C0A89A65
:1000700083FF08C0C39A0895AD98F4CFA998F5CF2F
:10008000A898F6CFC3980895CF93C82FAA9A8295BF
:100090008F70E5DFAA98AA9A8C2FE1DFAA9880E1F9
:1000A0008A95F1F700C0CF910895AC98EDCFAC9A46
:1000B000EBCFCF93DF93EC018991811103C0DF91E6
:1000C000CF910895F4DFF8CF8295880F880F807C58
:1000D000860F8068EACF81E0E8DF83EF91E0019747
:1000E000F1F700C00000089582E0DFDF83EF91E0C8
:1000F0000197F1F700C000000895CF93A59AA19A47
:10010000A09ABB9AA29AA49A85EA9EE00197F1F779
:1001100000C00000AC98AA98C3E0AA9A83E09FDFD1
:10012000AA9881EE94E00197F1F700C00000C15059
:10013000A1F7AA9A82E093DFAA9889EF90E001974D
:10014000F1F700C0000088E2B0DF88E0AEDF81E0B8
:10015000ACDF83EF91E00197F1F700C0000086E08B
:10016000A4DF8CE0CF91A1CF9C012115310509F4CA
:100170000895000021503109F8CFCF9397988F9AB6
:100180008CE390E0F1DF8F9887E090E0EDDFC0B383
:1001900084E390E0E9DF8C2F8078CF910895CF93AE
:1001A000C82F97988F9A90E080E0DEDFC1118F987A
:1001B00087E090E0D9DF8F98CF910895CF939798FB
:1001C0008F9A90E080E0D0DF8F9881E090E0CCDFE4
:1001D000C0B385E090E0C8DF8C2F881F8827881F78
:1001E000CF910895CF93DF93D9E0C0E0D15021F4AF
:1001F0008C2FDF91CF910895E1DF20E8829FC0012D
:100200001124C695C82BF2CFCF93DF93C82FD9E026
:10021000D15019F4DF91CF9108958C2F8170BFDFF9
:10022000C695F6CF0F931F93CF93DF93182F092F07
:10023000A4DF8CECE9DF84E4E7DFC0DF8823E9F3A7
:100240009CDF8CECE1DF8EEBDFDFCCDFD82FCADF69
:10025000C82F93DF8D2F82958F70DF7021E732E0FA
:10026000D29FA001D39F500D11245F934F9390E133
:10027000C99F900111242077282B1F922F9382E78A
:1002800090E09F938F930F931F9311D28DB79EB7DA
:1002900008960FB6F8949EBF0FBE8DBFDF91CF9129
:1002A0001F910F910895EF92FF920F931F93CF9399
:1002B000DF937C018B0161DF8CECA6DF84E4A4DF9B
:1002C0007DDF8823E9F359DF8CEC9EDF8EEB9CDF2A
:1002D00089DFD82F87DFC82F50DF2D2F22952F7071
:1002E000DF7030E1C39FC00111248077822BF701BA
:1002F000808321E732E0D29FC001D39F900D11246B
:10030000F80191838083DF91CF911F910F91FF902E
:10031000EF9008959C01121613060CF00895809139
:100320006000909161000197C9F74FE38DE093E081
:10033000415080409040E1F700C000002150310959
:10034000EACF1F921FB61F9211248F939F93809123
:10035000600090916100009781F481E090E09093BB
:100360006100809360001092B9001092B8009F91D4
:100370008F911F901FBE1F901895109261001092D0
:100380006000F5CF1895AF92BF92CF92DF92EF92B7
:10039000FF920F931F93CF93DF938C019CDEA4DE1B
:1003A00022E6E22E20E0F22ED0E0C0E03DE7C32EB0
:1003B00030E0D32E42EBA42E40E0B42E80917000AA
:1003C00090917100C817D90724F109E610E0D0E038
:1003D000C0E08DE7E82E80E0F82E92EBC92E90E089
:1003E000D92E8091700090917100C817D90784F1BF
:1003F00083ED90E30197F1F700C00000DF91CF910A
:100400001F910F91FF90EF90DF90CF90BF90AF9032
:100410000895F70181917F011F928F93DF92CF9210
:10042000BF92AF9244D16C2F660F80E04DDE0F90EB
:100430000F900F900F900F900F90C017D10719F4E5
:1004400080E890E036DE82EB90E033DE2196B6CF96
:10045000F80181918F011F928F93FF92EF92DF92AB
:10046000CF9225D16C2F660F81E02EDE82EB90E0DB
:1004700020DE21960F900F900F900F900F900F900D
:10048000B0CFEF92FF920F931F93CF93DF9309E6C4
:1004900010E082E6E82E80E0F82ED0E0C0E0809107
:1004A000700090917100C817D9075CF0109261003C
:1004B00010926000DF91CF911F910F91FF90EF900C
:1004C0000895CE0160DFF70181917F01813041F411
:1004D000C098F80181918F0190E01CDF2196DFCF59
:1004E000C09AF7CFCDB7DEB760970FB6F894DEBFEE
:1004F0000FBECDBFB89A80EC8BBF82E085BF8A98D3
:10050000929A8B98939A8E98969A8F98979A7894B5
:10051000F4DD02EB10E08DE7E82E80E0F82E80910C
:10052000600090916100019711F4ABDFF8CFC09AA1
:10053000D2DDDADD82E890E0BCDD81ECB6DD83E976
:1005400090E0B7DD83ED90E30197F1F700C0000084
:100550008399E5CFC0DDC8DD1092B2001982809189
:10056000B6009091B7009F938F93FF92EF921F93E5
:100570000F939DD064EA70E0CE0101968DD062EBBE
:1005800070E0CE01019688D0CE01019692DD80EC1C
:100590008CDD1092B2001982E091B600F091B700A4
:1005A000E759FF4F80811F928F93FF92EF921F9325
:1005B0000F937DD06BEA70E0CE0101966DD062EBB7
:1005C00070E0CE01019668D0CE01019672DD0FB6C3
:1005D000F894DEBF0FBECDBF869915C087E893E1C2
:1005E0000197F1F700C00000A091B600B091B700EC
:1005F000E091B600F091B700E759FF4FA759BF4F00
:100600008C918E518083879919C087E893E1019777
:10061000F1F700C00000A091B600B091B700E091E2
:10062000B600F091B700E759FF4FA759BF4F8C9123
:10063000825E80838091B6009091B70083991EC03E
:1006400087E893E10197F1F700C000008091B600C0
:100650009091B70001969093B7008093B6002091D7
:10066000B6003091B700809170009091710028170A
:10067000390724F01092B7001092B6008091600004
:1006800090916100892B09F04ACF87EA91E60197A2
:10069000F1F700C000005ECFFB01DC010D900020EF
:1006A000E9F7119701900D920020E1F70895AEE06F
:1006B000B0E0ECE5F3E091C20D891E8986E08C8301
:1006C0001A8309838FEF9FE79E838D83AE01475E78
:1006D0005F4F6F89788DCE01019609D02F813885C3
:1006E000020F131FF80110822E96E4E092C2AFE0D1
:1006F000B0E0ECE7F3E063C27C013B018A01DC017E
:1007000017961C921E92169713968C9181FFB0C17A
:100710009AE0292EFE0131964F01D70113969C9144
:10072000F30193FD859193FF81913F01882309F4A3
:100730003AC1853239F493FD859193FF81913F0150
:10074000853221F4B70190E0ACD1E7CFB12C412C38
:10075000512CBFE1B51538F08B3209F188F48032A5
:1007600001F1833221F157FC3AC020ED280F2A30E5
:1007700040F556FE1FC0B29C200D1124B22E06C0BB
:100780008D3291F0803379F7689450F8F30193FD3E
:10079000859193FF81913F018111DBCF20C0689447
:1007A00051F8689452F8F2CF689453F8EFCF6894F8
:1007B00054F8ECCF429C200D1124422E689455F839
:1007C000E5CF8E3229F456FCEEC0689456F8DECFA1
:1007D0008C3619F4689457F8D9CF8836B9F2982F27
:1007E0009F7D95549330B8F0833691F18337B1F102
:1007F000833509F056C0D801CD90DD908D016B2D69
:1008000070E056FC02C06FEF7FEFC60134D15C018F
:10081000689457F80AC00C5F1F4FEFE3E983AA24DE
:10082000A394B12C6401E89457F853FC04C04A1413
:100830001B0409F008F5342CA114B10419F5332078
:1008400009F46BCFB70180E290E02BD13A94F7CF57
:10085000D8018C9189830E5F1F4FE1CFF801C190C1
:10086000D1908F016B2D70E056FC02C06FEF7FEFCF
:10087000C6010CD15C01D7CFB70180E290E011D165
:100880004A94D5CFF60157FC859157FE81916F01AF
:10089000B70190E006D131103A94B1E0AB1AB1083B
:1008A000CBCF843619F0893609F06DC0F80157FEB8
:1008B00063C061917191819191918F01E52DEF76E6
:1008C000DE2E97FF09C090958095709561957F4FBA
:1008D0008F4F9F4F6894D7F82AE030E0A40111D1E0
:1008E000C82EC818AC2C5D2CD6FE0CC0E89450F86D
:1008F000CB1440F4D4FE05C0D2FC03C05D2D5E7E57
:10090000552EAB2C54FE8EC0FE01EC0DF11D8081E6
:10091000803309F080C0652D697E562E752D787064
:10092000372E53FC8DC050FE87C0BC2CA41410F48D
:10093000B40CBA1854FE8AC0B70180E390E0B1D07D
:1009400052FE06C088E751FC88E590E0B701A9D0C7
:10095000CB1408F487C0CA94D12C8FEFC81AD80AD8
:10096000C80CD91CD6018E916D01B70190E099D0C9
:100970008C149D04B9F763CF61917191072E000C1F
:10098000880B990B9ACFD52CE894D4F82AE08537B8
:1009900021F1F52DF97FDF2E803799F050F488355D
:1009A00099F08F36C9F0F701868197812F96E2E1A1
:1009B00022C18837C1F7D4FE02C06894D2F820E182
:1009C0000CC06894D4F8F7CF54FE03C02F2F2660D4
:1009D000D22E20E132E002C028E030E0F801D7FE5C
:1009E00014C041915191619171914C875D876E87DF
:1009F0007F878F01A4016C857D858E859F8581D041
:100A0000C82EC818E894D7F86DCF81919191AC01A8
:100A100070E060E0EACF52FC02C0A3947FCFA394C1
:100A2000A3947CCF852D867809F478CFF6CFB701D3
:100A300080E290E036D0A394A414C8F3312C7ACF8E
:100A4000342C3A18A41408F475CFF8CF852D867885
:100A500009F47ECF8BE251FE80E257FC8DE2B701B4
:100A600090E075CFB70180E390E01BD0BA9470CFCF
:100A70008FEF9FEF9BCFFC010590615070400110FC
:100A8000D8F7809590958E0F9F1F0895FC016150B7
:100A9000704001900110D8F7809590958E0F9F1FA0
:100AA00008950F931F93CF93DF93182F092FEB0116
:100AB0008B8181FD09C01FEF0FEF812F902FDF91F8
:100AC000CF911F910F91089582FF14C02E813F8115
:100AD0008C819D81281739073CF4E881F981CF0189
:100AE00001969983888310838E819F8101969F83CD
:100AF0008E83E3CFE885F985812F0995892BA1F3B2
:100B0000DACFFA01AA27283051F1203181F1E89497
:100B10006F936E7F6E5F7F4F8F4F9F4FAF4FB1E0F0
:100B20003ED0B4E03CD0670F781F891F9A1FA11DEB
:100B3000680F791F8A1F911DA11D6A0F711D811DEC
:100B4000911DA11D20D009F468943F912AE0269FB1
:100B500011243019305D3193DEF6CF010895462F10
:100B60004770405D4193B3E00FD0C9F7F6CF462FF1
:100B70004F70405D4A3318F0495D31FD405241935A
:100B800002D0A9F7EACFB4E0A69597958795779517
:100B90006795BA95C9F700976105710508959B019E
:100BA000AC010A2E06945795479537952795BA9527
:100BB000C9F7620F731F841F951FA01D08952F9200
:100BC0003F924F925F926F927F928F929F92AF92DD
:100BD000BF92CF92DF92EF92FF920F931F93CF932A
:100BE000DF93CDB7DEB7CA1BDB0B0FB6F894DEBFC1
:100BF0000FBECDBF09942A88398848885F846E84E7
:100C00007D848C849B84AA84B984C884DF80EE8030
:100C1000FD800C811B81AA81B981CE0FD11D0FB639
:100C2000F894DEBF0FBECDBFED010895F894FFCF5D
:100C30000100010001000100013C3C0A320A32B40B
:100C40000700252B642E25303475204300256400D1
:100C50003E004B6F6E6965632C20776369736E6924
:100C60006A3A00342D73746172742C20332D7365CD
:100C7000747570004B726F6B3A2000437A61733A5F
:020C8000200052
:040000050080006017
:00000001FF
